{
  "_format": "hh-sol-artifact-1",
  "contractName": "StakingPoolActions",
  "sourceName": "contracts/StakingPoolActions.sol",
  "abi": [
    {
      "inputs": [
        {
          "internalType": "uint256",
          "name": "_deploymentFee",
          "type": "uint256"
        }
      ],
      "stateMutability": "nonpayable",
      "type": "constructor"
    },
    {
      "anonymous": false,
      "inputs": [
        {
          "indexed": true,
          "internalType": "address",
          "name": "previousOwner",
          "type": "address"
        },
        {
          "indexed": true,
          "internalType": "address",
          "name": "newOwner",
          "type": "address"
        }
      ],
      "name": "OwnershipTransferred",
      "type": "event"
    },
    {
      "anonymous": false,
      "inputs": [
        {
          "indexed": true,
          "internalType": "bytes32",
          "name": "role",
          "type": "bytes32"
        },
        {
          "indexed": true,
          "internalType": "bytes32",
          "name": "previousAdminRole",
          "type": "bytes32"
        },
        {
          "indexed": true,
          "internalType": "bytes32",
          "name": "newAdminRole",
          "type": "bytes32"
        }
      ],
      "name": "RoleAdminChanged",
      "type": "event"
    },
    {
      "anonymous": false,
      "inputs": [
        {
          "indexed": true,
          "internalType": "bytes32",
          "name": "role",
          "type": "bytes32"
        },
        {
          "indexed": true,
          "internalType": "address",
          "name": "account",
          "type": "address"
        },
        {
          "indexed": true,
          "internalType": "address",
          "name": "sender",
          "type": "address"
        }
      ],
      "name": "RoleGranted",
      "type": "event"
    },
    {
      "anonymous": false,
      "inputs": [
        {
          "indexed": true,
          "internalType": "bytes32",
          "name": "role",
          "type": "bytes32"
        },
        {
          "indexed": true,
          "internalType": "address",
          "name": "account",
          "type": "address"
        },
        {
          "indexed": true,
          "internalType": "address",
          "name": "sender",
          "type": "address"
        }
      ],
      "name": "RoleRevoked",
      "type": "event"
    },
    {
      "anonymous": false,
      "inputs": [
        {
          "indexed": false,
          "internalType": "address",
          "name": "poolId",
          "type": "address"
        },
        {
          "indexed": false,
          "internalType": "address",
          "name": "owner",
          "type": "address"
        },
        {
          "indexed": false,
          "internalType": "address",
          "name": "token0",
          "type": "address"
        },
        {
          "indexed": false,
          "internalType": "address",
          "name": "token1",
          "type": "address"
        },
        {
          "indexed": false,
          "internalType": "uint256",
          "name": "apy",
          "type": "uint256"
        },
        {
          "indexed": false,
          "internalType": "uint8",
          "name": "tax",
          "type": "uint8"
        },
        {
          "indexed": false,
          "internalType": "uint256",
          "name": "endsIn",
          "type": "uint256"
        }
      ],
      "name": "StakingPoolDeployed",
      "type": "event"
    },
    {
      "inputs": [],
      "name": "DEFAULT_ADMIN_ROLE",
      "outputs": [
        {
          "internalType": "bytes32",
          "name": "",
          "type": "bytes32"
        }
      ],
      "stateMutability": "view",
      "type": "function"
    },
    {
      "inputs": [
        {
          "internalType": "address",
          "name": "token0",
          "type": "address"
        },
        {
          "internalType": "address",
          "name": "token1",
          "type": "address"
        },
        {
          "internalType": "uint16",
          "name": "apy",
          "type": "uint16"
        },
        {
          "internalType": "uint8",
          "name": "taxPercentage",
          "type": "uint8"
        },
        {
          "internalType": "address",
          "name": "taxRecipient",
          "type": "address"
        },
        {
          "internalType": "uint256",
          "name": "withdrawalIntervals",
          "type": "uint256"
        },
        {
          "internalType": "uint256",
          "name": "initialAmount",
          "type": "uint256"
        },
        {
          "internalType": "int256",
          "name": "daysToLast",
          "type": "int256"
        }
      ],
      "name": "deployStakingPool",
      "outputs": [
        {
          "internalType": "address",
          "name": "poolId",
          "type": "address"
        }
      ],
      "stateMutability": "payable",
      "type": "function"
    },
    {
      "inputs": [],
      "name": "deploymentFee",
      "outputs": [
        {
          "internalType": "uint256",
          "name": "",
          "type": "uint256"
        }
      ],
      "stateMutability": "view",
      "type": "function"
    },
    {
      "inputs": [
        {
          "internalType": "address",
          "name": "account",
          "type": "address"
        }
      ],
      "name": "excludeFromFee",
      "outputs": [],
      "stateMutability": "nonpayable",
      "type": "function"
    },
    {
      "inputs": [],
      "name": "excludedFromFeeRole",
      "outputs": [
        {
          "internalType": "bytes32",
          "name": "",
          "type": "bytes32"
        }
      ],
      "stateMutability": "view",
      "type": "function"
    },
    {
      "inputs": [],
      "name": "feeSetterRole",
      "outputs": [
        {
          "internalType": "bytes32",
          "name": "",
          "type": "bytes32"
        }
      ],
      "stateMutability": "view",
      "type": "function"
    },
    {
      "inputs": [],
      "name": "feeTakerRole",
      "outputs": [
        {
          "internalType": "bytes32",
          "name": "",
          "type": "bytes32"
        }
      ],
      "stateMutability": "view",
      "type": "function"
    },
    {
      "inputs": [
        {
          "internalType": "bytes32",
          "name": "role",
          "type": "bytes32"
        }
      ],
      "name": "getRoleAdmin",
      "outputs": [
        {
          "internalType": "bytes32",
          "name": "",
          "type": "bytes32"
        }
      ],
      "stateMutability": "view",
      "type": "function"
    },
    {
      "inputs": [
        {
          "internalType": "bytes32",
          "name": "role",
          "type": "bytes32"
        },
        {
          "internalType": "address",
          "name": "account",
          "type": "address"
        }
      ],
      "name": "grantRole",
      "outputs": [],
      "stateMutability": "nonpayable",
      "type": "function"
    },
    {
      "inputs": [
        {
          "internalType": "bytes32",
          "name": "role",
          "type": "bytes32"
        },
        {
          "internalType": "address",
          "name": "account",
          "type": "address"
        }
      ],
      "name": "hasRole",
      "outputs": [
        {
          "internalType": "bool",
          "name": "",
          "type": "bool"
        }
      ],
      "stateMutability": "view",
      "type": "function"
    },
    {
      "inputs": [
        {
          "internalType": "address",
          "name": "account",
          "type": "address"
        }
      ],
      "name": "includeInFee",
      "outputs": [],
      "stateMutability": "nonpayable",
      "type": "function"
    },
    {
      "inputs": [],
      "name": "owner",
      "outputs": [
        {
          "internalType": "address",
          "name": "",
          "type": "address"
        }
      ],
      "stateMutability": "view",
      "type": "function"
    },
    {
      "inputs": [
        {
          "internalType": "address",
          "name": "account",
          "type": "address"
        }
      ],
      "name": "removeFeeSetter",
      "outputs": [],
      "stateMutability": "nonpayable",
      "type": "function"
    },
    {
      "inputs": [
        {
          "internalType": "address",
          "name": "account",
          "type": "address"
        }
      ],
      "name": "removeFeeTaker",
      "outputs": [],
      "stateMutability": "nonpayable",
      "type": "function"
    },
    {
      "inputs": [],
      "name": "renounceOwnership",
      "outputs": [],
      "stateMutability": "nonpayable",
      "type": "function"
    },
    {
      "inputs": [
        {
          "internalType": "bytes32",
          "name": "role",
          "type": "bytes32"
        },
        {
          "internalType": "address",
          "name": "account",
          "type": "address"
        }
      ],
      "name": "renounceRole",
      "outputs": [],
      "stateMutability": "nonpayable",
      "type": "function"
    },
    {
      "inputs": [
        {
          "internalType": "bytes32",
          "name": "role",
          "type": "bytes32"
        },
        {
          "internalType": "address",
          "name": "account",
          "type": "address"
        }
      ],
      "name": "revokeRole",
      "outputs": [],
      "stateMutability": "nonpayable",
      "type": "function"
    },
    {
      "inputs": [
        {
          "internalType": "uint256",
          "name": "_fee",
          "type": "uint256"
        }
      ],
      "name": "setFee",
      "outputs": [],
      "stateMutability": "nonpayable",
      "type": "function"
    },
    {
      "inputs": [
        {
          "internalType": "address",
          "name": "account",
          "type": "address"
        }
      ],
      "name": "setFeeSetter",
      "outputs": [],
      "stateMutability": "nonpayable",
      "type": "function"
    },
    {
      "inputs": [
        {
          "internalType": "address",
          "name": "account",
          "type": "address"
        }
      ],
      "name": "setFeeTaker",
      "outputs": [],
      "stateMutability": "nonpayable",
      "type": "function"
    },
    {
      "inputs": [
        {
          "internalType": "bytes4",
          "name": "interfaceId",
          "type": "bytes4"
        }
      ],
      "name": "supportsInterface",
      "outputs": [
        {
          "internalType": "bool",
          "name": "",
          "type": "bool"
        }
      ],
      "stateMutability": "view",
      "type": "function"
    },
    {
      "inputs": [
        {
          "internalType": "address",
          "name": "newOwner",
          "type": "address"
        }
      ],
      "name": "transferOwnership",
      "outputs": [],
      "stateMutability": "nonpayable",
      "type": "function"
    },
    {
      "inputs": [
        {
          "internalType": "address",
          "name": "to",
          "type": "address"
        }
      ],
      "name": "withdrawEther",
      "outputs": [],
      "stateMutability": "nonpayable",
      "type": "function"
    },
    {
      "inputs": [
        {
          "internalType": "address",
          "name": "token",
          "type": "address"
        },
        {
          "internalType": "address",
          "name": "to",
          "type": "address"
        },
        {
          "internalType": "uint256",
          "name": "amount",
          "type": "uint256"
        }
      ],
      "name": "withdrawToken",
      "outputs": [],
      "stateMutability": "nonpayable",
      "type": "function"
    },
    {
      "stateMutability": "payable",
      "type": "receive"
    }
  ],
  "bytecode": "0x6080346200016957601f62003f6338819003918201601f19168301916001600160401b038311848410176200016e5780849260209460405283398101031262000169575160008054336001600160a01b03198216811783556040516200013d949390926001600160a01b0316907f8be0079c531659141344cd1fd0a4f28419497f9722a3daafe3b4186f6b6457e09080a360208101906d4645455f54414b45525f524f4c4560901b8252600e8152620000b88162000184565b519020908160035560405160208101906e4645455f5345545445525f524f4c4560881b8252600f8152620000ec8162000184565b51902060045560405160208101907f4558434c554445445f46524f4d5f4645455f524f4c45000000000000000000008252601681526200012c8162000184565b5190206005556002553390620001a0565b6200014b33600454620001a0565b6200015933600554620001a0565b604051613d4790816200021c8239f35b600080fd5b634e487b7160e01b600052604160045260246000fd5b604081019081106001600160401b038211176200016e57604052565b906000918083526001602052604083209160018060a01b03169182845260205260ff60408420541615620001d357505050565b80835260016020526040832082845260205260408320600160ff198254161790557f2f8788117e7eff1d82e926ec794901d17c78024a50270940304540a733656f0d339380a456fe608060405260043610156200001d575b36156200001b57600080fd5b005b60003560e01c806301e33667146200024457806301ffc9a71462000239578063248a9ca3146200022e5780632f2ff15d146200022357806336568abe1462000218578063437823ec146200020d5780634ec5908d14620002025780635ad3d7d414620001f757806362604a7814620001ec57806367a234b114620001e15780636974b0f114620001d657806369fe0e2d14620001cb578063715018a614620001c05780638da5cb5b14620001b55780638df622f914620001aa5780638e75911b146200019f57806391d148541462000194578063a217fddf1462000189578063af933b57146200017e578063b19805af1462000173578063d547741f1462000168578063ea2f0b37146200015d578063f2cff57f14620001525763f2fde38b036200000f576200014c62000954565b6200000f565b506200014c62000933565b506200014c620008fb565b506200014c620008b3565b506200014c6200087b565b506200014c62000823565b506200014c62000804565b506200014c620007ac565b506200014c6200078b565b506200014c6200076a565b506200014c6200073e565b506200014c620006de565b506200014c62000698565b506200014c62000677565b506200014c6200063f565b506200014c620005af565b506200014c62000566565b506200014c6200052e565b506200014c620004e6565b506200014c6200044c565b506200014c62000404565b506200014c620003d2565b506200014c62000376565b506200014c62000282565b600435906001600160a01b03821682036200026657565b600080fd5b602435906001600160a01b03821682036200026657565b5034620002665760603660031901126200026657620002a06200024f565b620002aa6200026b565b6003546000908152600160209081526040808320338452909152812054909291839160ff16156200037257828291620002ea6200036f953b15156200158e565b7f7472616e7366657228616464726573732c75696e74323536290000000000000060206040516200031b8162000c0b565b60198152015260405163a9059cbb60e01b602082019081526001600160a01b0390921660248201526044803581830152815283906200035a8162000c37565b51925af162000368620014a5565b50620015d2565b80f35b5080fd5b503462000266576020366003190112620002665760043563ffffffff60e01b81168091036200026657602090637965db0b60e01b8114908115620003c0575b506040519015158152f35b6301ffc9a760e01b14905038620003b5565b503462000266576020366003190112620002665760043560005260016020526020600160406000200154604051908152f35b50346200026657604036600319011262000266576200001b600435620004296200026b565b908060005260016020526200044660016040600020015462000a49565b62000cc2565b50346200026657604036600319011262000266576200046a6200026b565b336001600160a01b0382160362000489576200001b9060043562000d5b565b60405162461bcd60e51b815260206004820152602f60248201527f416363657373436f6e74726f6c3a2063616e206f6e6c792072656e6f756e636560448201526e103937b632b9903337b91039b2b63360891b6064820152608490fd5b5034620002665760203660031901126200026657620005046200024f565b6200050e62000df0565b600554906200051e818362000a1f565b62000266576200001b9162000cc2565b50346200026657602036600319011262000266576200054c6200024f565b6200055662000df0565b600354906200051e818362000a1f565b5034620002665760203660031901126200026657620005846200024f565b6200058e62000df0565b600354906200059e818362000a1f565b1562000266576200001b9162000d5b565b506101003660031901126200026657620005c86200024f565b620005d26200026b565b60443561ffff8116810362000266576064359160ff831683036200026657608435936001600160a01b038516850362000266576200063b94620006219460e4359460c4359460a435946200113e565b6040516001600160a01b0390911681529081906020820190565b0390f35b50346200026657602036600319011262000266576200065d6200024f565b6200066762000df0565b600454906200059e818362000a1f565b50346200026657600036600319011262000266576020600354604051908152f35b5034620002665760203660031901126200026657600454600090815260016020908152604080832033845290915281205460ff1615620006db5760043560025580f35b80fd5b50346200026657600080600319360112620006db57620006fd62000df0565b80546001600160a01b03198116825581906001600160a01b03167f8be0079c531659141344cd1fd0a4f28419497f9722a3daafe3b4186f6b6457e08280a380f35b50346200026657600036600319011262000266576000546040516001600160a01b039091168152602090f35b50346200026657600036600319011262000266576020600554604051908152f35b50346200026657600036600319011262000266576020600454604051908152f35b5034620002665760403660031901126200026657602060ff620007f8620007d26200026b565b6004356000526001845260406000209060018060a01b0316600052602052604060002090565b54166040519015158152f35b5034620002665760003660031901126200026657602060405160008152f35b5034620002665760203660031901126200026657620008416200024f565b600354600090815260016020908152604080832033845290915281205490919060ff1615620003725762000877904790620014fa565b5080f35b5034620002665760203660031901126200026657620008996200024f565b620008a362000df0565b600454906200051e818362000a1f565b50346200026657604036600319011262000266576200001b600435620008d86200026b565b90806000526001602052620008f560016040600020015462000a49565b62000d5b565b5034620002665760203660031901126200026657620009196200024f565b6200092362000df0565b600554906200059e818362000a1f565b50346200026657600036600319011262000266576020600254604051908152f35b5034620002665760203660031901126200026657620009726200024f565b6200097c62000df0565b6001600160a01b039081168015620009cb57600080546001600160a01b03198116831782559092167f8be0079c531659141344cd1fd0a4f28419497f9722a3daafe3b4186f6b6457e08380a380f35b60405162461bcd60e51b815260206004820152602660248201527f4f776e61626c653a206e6577206f776e657220697320746865207a65726f206160448201526564647265737360d01b6064820152608490fd5b60009081526001602090815260408083206001600160a01b0390941683529290522060ff90541690565b60008181526001602081815260408084203385529091529091205490919060ff161562000a74575050565b3362000a7f62000ea3565b92603062000a8d8562000ef9565b53607862000a9b8562000f12565b536029905b80821162000b5c5762000b5862000b1362000b3f8762000b3062000ad08962000aca8a1562000f65565b62000fb1565b62000b0c60405195869462000b0c602087016017907f416363657373436f6e74726f6c3a206163636f756e742000000000000000000081520190565b9062000bdb565b7001034b99036b4b9b9b4b733903937b6329607d1b815260110190565b03601f19810183528262000c71565b60405162461bcd60e51b81529182916004830162000c94565b0390fd5b909180600f62000b9f9216601081101562000ba6575b6f181899199a1a9b1b9c1cb0b131b232b360811b901a62000b94858862000f24565b5360041c9262000f46565b9062000aa0565b62000bb062000ee2565b62000b72565b60005b83811062000bca5750506000910152565b818101518382015260200162000bb9565b9062000bf06020928281519485920162000bb6565b0190565b50634e487b7160e01b600052604160045260246000fd5b6040810190811067ffffffffffffffff82111762000c2857604052565b62000c3262000bf4565b604052565b6080810190811067ffffffffffffffff82111762000c2857604052565b60a0810190811067ffffffffffffffff82111762000c2857604052565b90601f8019910116810190811067ffffffffffffffff82111762000c2857604052565b6040916020825262000cb6815180928160208601526020868601910162000bb6565b601f01601f1916010190565b600090808252600160205260ff62000cef84604085209060018060a01b0316600052602052604060002090565b54161562000cfc57505050565b8082526001602090815260408084206001600160a01b038616600090815292529020805460ff1916600117905533926001600160a01b0316917f2f8788117e7eff1d82e926ec794901d17c78024a50270940304540a733656f0d9080a4565b600090808252600160205260ff62000d8884604085209060018060a01b0316600052602052604060002090565b541662000d9457505050565b8082526001602090815260408084206001600160a01b038616600090815292529020805460ff1916905533926001600160a01b0316917ff6391f5c32d9c69d2a47ea670b442974b53935d1edc7fd64eb21e047a839171b9080a4565b6000546001600160a01b0316330362000e0557565b606460405162461bcd60e51b815260206004820152602060248201527f4f776e61626c653a2063616c6c6572206973206e6f7420746865206f776e65726044820152fd5b50634e487b7160e01b600052601160045260246000fd5b90620151809182810292818404149015171562000e7957565b62000e8362000e49565b565b9190820180921162000e7957565b9062000e83604051928362000c71565b604051906060820182811067ffffffffffffffff82111762000ed2575b604052602a8252604082602036910137565b62000edc62000bf4565b62000ec0565b50634e487b7160e01b600052603260045260246000fd5b60209080511562000f08570190565b62000bf062000ee2565b60219080516001101562000f08570190565b90602091805182101562000f3757010190565b62000f4162000ee2565b010190565b801562000f55575b6000190190565b62000f5f62000e49565b62000f4e565b1562000f6d57565b606460405162461bcd60e51b815260206004820152602060248201527f537472696e67733a20686578206c656e67746820696e73756666696369656e746044820152fd5b6040519062000fc08262000c37565b604282526060366020840137603062000fd98362000ef9565b53607862000fe78362000f12565b536041905b6001821162001005576200100291501562000f65565b90565b80600f62001046921660108110156200104d575b6f181899199a1a9b1b9c1cb0b131b232b360811b901a6200103b848662000f24565b5360041c9162000f46565b9062000fec565b6200105762000ee2565b62001019565b156200106557565b60405162461bcd60e51b815260206004820152600360248201526266656560e81b6044820152606490fd5b156200109857565b60405162461bcd60e51b815260206004820152601e60248201527f666565206f7220616d6f756e7420666f722065746865722072657761726400006044820152606490fd5b9081602091031262000266575190565b506040513d6000823e3d90fd5b156200110257565b60405162461bcd60e51b81526020600482015260146024820152736e6f7420656e6f75676820616c6c6f77616e636560601b6044820152606490fd5b9597966001600160a01b03821696919591948715949293918290620011d49087156200146a578c620011ac620011a8620011a16005546200118a33916000526001602052604060002090565b9060018060a01b0316600052602052604060002090565b5460ff1690565b1590565b156200145f57620011c5620011ce916002549062000e85565b34101562001090565b62000e60565b620011e0904262000e85565b9488888761261793602096878601620011f99062000e93565b95808752620016fb8988013960408051338a82019081526001600160a01b0396871660208201529686169187019190915261ffff909716606086015260ff8a1660808601529290921660a084015260c083019190915260e082015282906101000103601f1990818101845262001270908462000c71565b60405180938582019384620012859162000bdb565b620012909162000bdb565b038181018452620012a2908462000c71565b60405160608a811b6bffffffffffffffffffffffff199081168784019081528d831b8216601482015260f089901b6001600160f01b03191660288201523390921b16602a82015242603e8201529181605e840103908101825262001307908262000c71565b5190209151906000f5998a3b1562000266577f5b04169a983b80a280ed6942ff370c94f10016a1e77f3bc69b14bc24b5f4bcf998620013f696158062001454575b156200143f57604051636eb1769f60e11b8152336004820152306024820152620013a4936200139b928492908290829060449082905afa9182156200142f575b600092620013fb575b50501015620010fa565b8a33896200161f565b505b604080516001600160a01b038b811682523360208301529687169181019190915295909416606086015261ffff909316608085015260ff90921660a084015260c0830191909152819060e0820190565b0390a1565b6200141f9250803d1062001427575b62001416818362000c71565b810190620010dd565b388062001391565b503d6200140a565b62001439620010ed565b62001388565b506200144d91508a620014fa565b50620013a6565b50883b151562001348565b620011ce90620011c5565b6200148f620011a8620011a16005546200118a33916000526001602052604060002090565b1562000e6057620011ce6002543410156200105d565b3d15620014f5573d9067ffffffffffffffff8211620014e5575b60405191620014d9601f8201601f19166020018462000c71565b82523d6000602084013e565b620014ef62000bf4565b620014bf565b606090565b60008080938193826040516020810181811067ffffffffffffffff8211176200157e575b604052525af1906200152f620014a5565b5081156200153957565b60405162461bcd60e51b815260206004820152601860248201527f6661696c656420746f207472616e7366657220657468657200000000000000006044820152606490fd5b6200158862000bf4565b6200151e565b156200159657565b60405162461bcd60e51b815260206004820152601460248201527318d85b1b17dd1bd7db9bdb97d8dbdb9d1c9858dd60621b6044820152606490fd5b15620015da57565b60405162461bcd60e51b815260206004820152601e60248201527f6c6f775f6c6576656c5f636f6e74726163745f63616c6c5f6661696c656400006044820152606490fd5b906000809493819462001635853b15156200158e565b6040516060810181811067ffffffffffffffff821117620016ea575b6040526025815264743235362960d81b604060208301927f7472616e7366657246726f6d28616464726573732c616464726573732c75696e84520152602563ffffffff60e01b91201693604051926020840195865260018060a01b038092166024850152166044830152606482015260648152620016cf8162000c54565b51925af190620016de620014a5565b5062000e8382620015d2565b620016f462000bf4565b6200165156fe60e0346200035857601f6200261738819003918201601f1916830192916001600160401b0391828511848610176200034257816101009285926040978852833981010312620003585762000053826200035d565b9162000062602082016200035d565b90620000708582016200035d565b9160608201519161ffff8316809303620003585760808101519060ff8216918281036200035857620000a560a083016200035d565b9460e060c084015193015196620000bc33620003ed565b60ff196002541660025560016003558a5195602087016a5041555345525f524f4c4560a81b8152600b88528c88019a888c10908c111762000342578a8d52875190206004819055996001600160a01b039782891615801562000337575b15620002e5575050868216158015620002da575b15620002855760805260a05262ff00006005549260101b169162ffffff191617176005556006556200020c575b5060c0526008556200018891906200017490339062000372565b620001828160045462000372565b620003ed565b516121e290816200043582396080518181816103e20152818161058d01528181610949015281816111cb0152818161126a0152818161147e015281816118350152611888015260a0518181816101f901528181610d240152611190015260c05181818161069e015281816106d201528181610a5401528181610a880152610ffa0152f35b8116156200021b57386200015a565b845162461bcd60e51b815260206004820152603d60248201527f74617820726563697069656e742063616e6e6f74206265207a65726f2061646460448201527f72657373206966206665652069732067726561746572207468616e20300000006064820152608490fd5b8b5162461bcd60e51b815260206004820152602860248201527f746f6b656e2031206d757374206265207a65726f2061646472657373206f722060448201526718dbdb9d1c9858dd60c21b6064820152608490fd5b50813b15156200012d565b906718dbdb9d1c9858dd60c21b60a460849362461bcd60e51b845260206044820152602860648201527f746f6b656e2030206d757374206265207a65726f2061646472657373206f7220858201520152fd5b50823b151562000119565b634e487b7160e01b600052604160045260246000fd5b600080fd5b51906001600160a01b03821682036200035857565b906000918083526001602052604083209160018060a01b03169182845260205260ff60408420541615620003a557505050565b80835260016020526040832082845260205260408320600160ff198254161790557f2f8788117e7eff1d82e926ec794901d17c78024a50270940304540a733656f0d339380a4565b600080546001600160a01b039283166001600160a01b03198216811783559216907f8be0079c531659141344cd1fd0a4f28419497f9722a3daafe3b4186f6b6457e09080a356fe6080604081815260049182361015610022575b505050361561002057600080fd5b005b600092833560e01c91826301ffc9a7146118d057508163084a1392146118645781630fc63d1014611820578163248a9ca3146117f65781632f2ff15d1461174957816335322f371461171957816336568abe146116875781633bcfc4b8146116645781633f4ba83a146115b857816340dc1f3d14611599578163459e657f1461141657816349a63d44146111535781634f93208a1461111557816354756891146110aa5781635c975abb14611086578163715018a614611029578163737ea06e14610fe55781637bb1ca1914610fad5781638456cb5914610f3d5781638da5cb5b14610f1557816391d1485414610ece578163a217fddf14610eb3578163aaf81bf314610e95578163bd8cb43e14610e5d578163c673c09b14610e3e578163c7b8981c14610c90578163cc7ef509146108e4578163d21577f214610531578163d547741f146104f3578163d63f45941461039e578163d82e396214610371578163e3781e4314610327578163ef40a670146102ef578163f2fde38b1461022857508063f7c618c1146101e55763f82e8ebe146101be5780610012565b346101e157816003193601126101e15760209060ff60055460101c169051908152f35b5080fd5b50346101e157816003193601126101e157517f00000000000000000000000000000000000000000000000000000000000000006001600160a01b03168152602090f35b9050346102eb5760203660031901126102eb57610243611923565b9061024c611d75565b6001600160a01b0391821692831561029957505082546001600160a01b0319811683178455167f8be0079c531659141344cd1fd0a4f28419497f9722a3daafe3b4186f6b6457e08380a380f35b906020608492519162461bcd60e51b8352820152602660248201527f4f776e61626c653a206e6577206f776e657220697320746865207a65726f206160448201526564647265737360d01b6064820152fd5b8280fd5b5050346101e15760203660031901126101e15760209181906001600160a01b03610317611923565b168152600a845220549051908152f35b5050346101e15760203660031901126101e157610342611923565b61034a611d75565b6001600160a01b0316825260096020528120805460ff818116151660ff1990911617905580f35b5050346101e15760203660031901126101e157602090610397610392611923565b611e2a565b9051908152f35b919050346102eb5760603660031901126102eb576103ba611923565b916103c361193e565b916103cc611d75565b833b156104b5576001600160a01b0384811692907f00000000000000000000000000000000000000000000000000000000000000001683036104a05760209060248351809581936370a0823160e01b835230908301525afa90811561049757508490610460575b610441915060075490611e9e565b908161044e575b50505080f35b610457926120d9565b50388080610448565b506020813d821161048f575b8161047960209383611cdd565b8101031261048b576104419051610433565b8380fd5b3d915061046c565b513d86823e3d90fd5b505050906104b191604435916120d9565b5080f35b906020606492519162461bcd60e51b835282015260186024820152776d7573745f62655f636f6e74726163745f6164647265737360401b6044820152fd5b919050346102eb57806003193601126102eb5761052e9135610529600161051861193e565b938387528160205286200154611954565b611cff565b80f35b8383816003193601126101e157610546611ef7565b61055560026003541415611eab565b6002600355610562611ef7565b6008544210156108ae5733825260206009815261058560ff838520541615611f3b565b341561086c577f00000000000000000000000000000000000000000000000000000000000000006001600160a01b0381168015959086156106fd575b505060008051602061218d83398151915293946106139160646105ec60ff60055460101c1634611dcd565b04809281610692575b505050338652600a835261060d848720549134611e9e565b90611df6565b338552600a825282852055600b81528184205415610688575b600c8152818420541561066b575b5061064734600754611df6565b6007555133815234602082015242604082015280606081015b0390a1600160035580f35b600c61067960065442611df6565b9133865252818420558361063a565b428285205561062c565b156106cc576106c291507f0000000000000000000000000000000000000000000000000000000000000000611fc7565b505b8681816105f5565b6106f7917f0000000000000000000000000000000000000000000000000000000000000000906120d9565b506106c4565b83604491865192838092636eb1769f60e11b825233878301523060248301525afa908115610862578691610831575b5034116107ee575060008051602061218d833981519152939481610755610613933b151561204a565b6107e48780875161076581611c8f565b6025815264743235362960d81b89898301927f7472616e7366657246726f6d28616464726573732c616464726573732c75696e84520152602563ffffffff60e01b9120168851888101918252336024820152306044820152346064820152606481526107d081611cc1565b519082865af16107de611f87565b5061208d565b91819695506105c1565b835162461bcd60e51b8152908101839052601d60248201527f6e6f7420656e6f75676820616c6c6f77616e636520697320676976656e0000006044820152606490fd5b90508381813d831161085b575b6108488183611cdd565b8101031261085757518761072c565b8580fd5b503d61083e565b85513d88823e3d90fd5b8390606492519162461bcd60e51b8352820152601d60248201527f616d6f756e74206d7573742062652067726561746572207468616e20300000006044820152fd5b5162461bcd60e51b815260208184015260116024820152701cdd185ada5b99c81a185cc8195b991959607a1b6044820152606490fd5b919050346102eb5760208060031936011261048b57823592610904611ef7565b61091360026003541415611eab565b6002600355610920611ef7565b600854421015610c5b573385526009825261094160ff848720541615611f3b565b8315610c1a577f00000000000000000000000000000000000000000000000000000000000000006001600160a01b038116801592908315610ab3575b5050916109ce610660949260008051602061218d833981519152969460646109ad60ff60055460101c1688611dcd565b04809281610a48575b505050338852600a835261060d848920549186611e9e565b338752600a825282872055600b81528186205415610a3e575b600c81528186205415610a21575b50610a0282600754611df6565b6007555133815260208101919091524260408201529081906060820190565b600c610a2f60065442611df6565b913388525281862055386109f5565b42828720556109e7565b15610a8257610a7891507f0000000000000000000000000000000000000000000000000000000000000000611fc7565b505b3881816109b6565b610aad917f0000000000000000000000000000000000000000000000000000000000000000906120d9565b50610a7a565b84604491875192838092636eb1769f60e11b825233878301523060248301525afa908115610c10579087918991610bdb575b5010610b985750916109ce610660949284610b1260008051602061218d83398151915298963b151561204a565b610b8d89808751610b2281611c8f565b6025815264743235362960d81b89898301927f7472616e7366657246726f6d28616464726573732c616464726573732c75696e84520152602563ffffffff60e01b91201688518881019182523360248201523060448201528a6064820152606481526107d081611cc1565b92949650929461097d565b845162461bcd60e51b8152908101849052601d60248201527f6e6f7420656e6f75676820616c6c6f77616e636520697320676976656e0000006044820152606490fd5b809250868092503d8311610c09575b610bf48183611cdd565b81010312610c055786905138610ae5565b8780fd5b503d610bea565b86513d8a823e3d90fd5b915162461bcd60e51b815291820152601d60248201527f616d6f756e74206d7573742062652067726561746572207468616e20300000006044820152606490fd5b915162461bcd60e51b81529182015260116024820152701cdd185ada5b99c81a185cc8195b991959607a1b6044820152606490fd5b9050346102eb57826003193601126102eb57610caa611ef7565b610cb960026003541415611eab565b6002600355600854421015610df2573383526009602052610ce060ff838520541615611f3b565b338352600c602052818320544210610db057506106607f7fcf532c15f0a6db0bd6d0e038bea71d30d808c7d98cb3bf7268a95bf5081b6591610d2133611e2a565b907f0000000000000000000000000000000000000000000000000000000000000000826001600160a01b038216610d9f57610d5d915033611fc7565b505b338552600b6020524281862055610d7860065442611df6565b33808752600c60209081528388209290925591519182528101919091529081906040820190565b610daa9133906120d9565b50610d5f565b6020606492519162461bcd60e51b8352820152601760248201527f6e6f742074696d6520666f72207769746864726177616c0000000000000000006044820152fd5b6020608492519162461bcd60e51b8352820152602160248201527f7265776172647320617265206e6f206c6f6e67657220646973747269627574656044820152601960fa1b6064820152fd5b5050346101e157816003193601126101e1576020906008549051908152f35b5050346101e15760203660031901126101e15760209181906001600160a01b03610e85611923565b168152600c845220549051908152f35b9050346102eb57826003193601126102eb5760209250549051908152f35b5050346101e157816003193601126101e15751908152602090f35b9050346102eb57816003193601126102eb578160209360ff92610eef61193e565b90358252600186528282206001600160a01b039091168252855220549151911615158152f35b5050346101e157816003193601126101e157905490516001600160a01b039091168152602090f35b9050346102eb57826003193601126102eb57548252600160205280822033835260205260ff8183205416156101e15760207f62e78cea01bee320cd4e420270b5ea74000d11b0c9f74754ebdbfc544b05a25891610f98611ef7565b600160ff19600254161760025551338152a180f35b5050346101e15760203660031901126101e15760209181906001600160a01b03610fd5611923565b168152600b845220549051908152f35b5050346101e157816003193601126101e157517f00000000000000000000000000000000000000000000000000000000000000006001600160a01b03168152602090f35b8334611083578060031936011261108357611042611d75565b80546001600160a01b03198116825581906001600160a01b03167f8be0079c531659141344cd1fd0a4f28419497f9722a3daafe3b4186f6b6457e08280a380f35b80fd5b5050346101e157816003193601126101e15760209060ff6002541690519015158152f35b9050346102eb5760203660031901126102eb573560ff811680820361048b577f580cd9b05dc306e6659fcb80b9b1b4b06dff27128aec519aaa271391902fc923926020926110f6611d75565b62ff00006005549160101b169062ff000019161760055551908152a180f35b5050346101e15760203660031901126101e15760209160ff9082906001600160a01b03611140611923565b1681526009855220541690519015158152f35b919050346102eb576020908160031936011261048b57611171611923565b9260085442106113df5760ff600d54166113a9576001600160a01b03927f00000000000000000000000000000000000000000000000000000000000000009284841692909190836112295750505050506111c9611d75565b7f00000000000000000000000000000000000000000000000000000000000000001661121857611206906112004760075490611e9e565b90611fc7565b505b600160ff19600d541617600d5580f35b611223904790611fc7565b50611208565b90919293959483516370a0823160e01b91828252308483015284826024818a5afa91821561139f578a9261136c575b50611261611d75565b883b1561132e577f000000000000000000000000000000000000000000000000000000000000000016860361131e5750906024839285519687938492835230908301525afa918215611315575085916112e5575b506112c4915060075490611e9e565b90816112d3575b505050611208565b6112dc926120d9565b503880806112cb565b905081813d831161130e575b6112fb8183611cdd565b8101031261048b576112c49051386112b5565b503d6112f1565b513d87823e3d90fd5b95945050505050611223926120d9565b855162461bcd60e51b815280850186905260186024820152776d7573745f62655f636f6e74726163745f6164647265737360401b6044820152606490fd5b9091508481813d8311611398575b6113848183611cdd565b8101031261139457519038611258565b8980fd5b503d61137a565b86513d8c823e3d90fd5b82606492519162461bcd60e51b835282015260126024820152711c1bdbdb08185b1c9958591e481dda5c195960721b6044820152fd5b82606492519162461bcd60e51b8352820152601360248201527239ba30b5b4b7339034b99039ba34b6361037b760691b6044820152fd5b919050346102eb5760208060031936011261048b5782359261143d60026003541415611eab565b6002600355338552600a825282852054841161153257507f85082129d87b2fe11527cb1b3b7a520aeb5aa6913f88a3d8757fe40d1db02fdd926106609290917f0000000000000000000000000000000000000000000000000000000000000000836001600160a01b038216611521576114b7915033611fc7565b505b338652600a81526114cd8383882054611e9e565b338752600a825282872055818620548314611509575b506114f082600754611e9e565b6007555133815260208101919091529081906040820190565b80600b600c92528683812055528481812055386114e3565b61152c9133906120d9565b506114b9565b915162461bcd60e51b815291820152603b60248201527f756e7374616b656420616d6f756e74206d757374206265206c6573732074686160448201527f6e206f7220657175616c20746f20616d6f756e74207374616b656400000000006064820152608490fd5b5050346101e157816003193601126101e1576020906006549051908152f35b9050346102eb57826003193601126102eb5780548352600160205281832033845260205260ff8284205416156102eb576002549060ff82161561162a575060ff1916600255513381527f5db9ee0a495bf2e6ff9c91a7834c1ba4fdd244a5e8aa4e537bd38aeae4b073aa90602090a180f35b606490602084519162461bcd60e51b8352820152601460248201527314185d5cd8589b194e881b9bdd081c185d5cd95960621b6044820152fd5b5050346101e157816003193601126101e15760209061ffff600554169051908152f35b839150346101e157826003193601126101e1576116a261193e565b90336001600160a01b038316036116be579061052e9135611cff565b608490602085519162461bcd60e51b8352820152602f60248201527f416363657373436f6e74726f6c3a2063616e206f6e6c792072656e6f756e636560448201526e103937b632b9903337b91039b2b63360891b6064820152fd5b919050346102eb57826003193601126102eb573383526020600a8152818420549261143d60026003541415611eab565b9050346102eb57816003193601126102eb57359061176561193e565b90828452600160205261177d60018286200154611954565b828452600160209081528185206001600160a01b039093168086529290528084205460ff16156117ab578380f35b82845260016020528084208285526020528320600160ff1982541617905533917f2f8788117e7eff1d82e926ec794901d17c78024a50270940304540a733656f0d8480a43880808380f35b9050346102eb5760203660031901126102eb57816020936001923581528285522001549051908152f35b5050346101e157816003193601126101e157517f00000000000000000000000000000000000000000000000000000000000000006001600160a01b03168152602090f35b83346110835760203660031901126110835761187e611923565b611886611d75565b7f00000000000000000000000000000000000000000000000000000000000000006001600160a01b03166118c5576104b1906112004760075490611e9e565b6104b1904790611fc7565b8491346102eb5760203660031901126102eb573563ffffffff60e01b81168091036102eb5760209250637965db0b60e01b8114908115611912575b5015158152f35b6301ffc9a760e01b1490508361190b565b600435906001600160a01b038216820361193957565b600080fd5b602435906001600160a01b038216820361193957565b6000818152600190602091808352604091828120338252845260ff838220541615611980575050505050565b339183519561198e87611c8f565b602a87528587019385368637875115611c5857603085538751831015611c58576078602189015360295b838111611bee5750611bac578451916080830183811067ffffffffffffffff821117611b9857865260428352868301936060368637835115611b8457603085538351821015611b845790607860218501536041915b818311611b1657505050611ad45792611aa26048611a939794611ac6946044989785519a8b93611a6a8b86019a7f416363657373436f6e74726f6c3a206163636f756e74200000000000000000008c525180926037880190611c6c565b8401917001034b99036b4b9b9b4b733903937b6329607d1b603784015251809386840190611c6c565b01036028810189520187611cdd565b5194859362461bcd60e51b8552600485015251809281602486015285850190611c6c565b601f01601f19168101030190fd5b60648585519062461bcd60e51b825280600483015260248201527f537472696e67733a20686578206c656e67746820696e73756666696369656e746044820152fd5b909192600f81166010811015611b70576f181899199a1a9b1b9c1cb0b131b232b360811b901a611b468587611e03565b5360041c928015611b5c57600019019190611a0d565b634e487b7160e01b82526011600452602482fd5b634e487b7160e01b83526032600452602483fd5b634e487b7160e01b81526032600452602490fd5b634e487b7160e01b85526041600452602485fd5b60648686519062461bcd60e51b825280600483015260248201527f537472696e67733a20686578206c656e67746820696e73756666696369656e746044820152fd5b90600f81166010811015611c44576f181899199a1a9b1b9c1cb0b131b232b360811b901a611c1c838b611e03565b5360041c908015611c3057600019016119b8565b634e487b7160e01b85526011600452602485fd5b634e487b7160e01b86526032600452602486fd5b634e487b7160e01b84526032600452602484fd5b60005b838110611c7f5750506000910152565b8181015183820152602001611c6f565b6060810190811067ffffffffffffffff821117611cab57604052565b634e487b7160e01b600052604160045260246000fd5b60a0810190811067ffffffffffffffff821117611cab57604052565b90601f8019910116810190811067ffffffffffffffff821117611cab57604052565b906000918083526001602052604083209160018060a01b03169182845260205260ff604084205416611d3057505050565b8083526001602052604083208284526020526040832060ff1981541690557ff6391f5c32d9c69d2a47ea670b442974b53935d1edc7fd64eb21e047a839171b339380a4565b6000546001600160a01b03163303611d8957565b606460405162461bcd60e51b815260206004820152602060248201527f4f776e61626c653a2063616c6c6572206973206e6f7420746865206f776e65726044820152fd5b81810292918115918404141715611de057565b634e487b7160e01b600052601160045260246000fd5b91908201809211611de057565b908151811015611e14570160200190565b634e487b7160e01b600052603260045260246000fd5b61ffff600554169060018060a01b031690600090828252600b602052611e54604083205442611e9e565b600654908115611e8a5792600c611e7660649694604094611e86970490611dcd565b04928152600a6020522054611dcd565b0490565b634e487b7160e01b84526012600452602484fd5b91908203918211611de057565b15611eb257565b60405162461bcd60e51b815260206004820152601f60248201527f5265656e7472616e637947756172643a207265656e7472616e742063616c6c006044820152606490fd5b60ff60025416611f0357565b60405162461bcd60e51b815260206004820152601060248201526f14185d5cd8589b194e881c185d5cd95960821b6044820152606490fd5b15611f4257565b60405162461bcd60e51b815260206004820152601860248201527f6163636f756e7420686173206265656e20626c6f636b656400000000000000006044820152606490fd5b3d15611fc2573d9067ffffffffffffffff8211611cab5760405191611fb6601f8201601f191660200184611cdd565b82523d6000602084013e565b606090565b604051602081019080821067ffffffffffffffff831117611cab576000938493848094938194604052525af190611ffc611f87565b50811561200557565b60405162461bcd60e51b815260206004820152601860248201527f6661696c656420746f207472616e7366657220657468657200000000000000006044820152606490fd5b1561205157565b60405162461bcd60e51b815260206004820152601460248201527318d85b1b17dd1bd7db9bdb97d8dbdb9d1c9858dd60621b6044820152606490fd5b1561209457565b60405162461bcd60e51b815260206004820152601e60248201527f6c6f775f6c6576656c5f636f6e74726163745f63616c6c5f6661696c656400006044820152606490fd5b9190916120e8813b151561204a565b60405192604084019284841067ffffffffffffffff851117611cab576040938452601985527f7472616e7366657228616464726573732c75696e743235362900000000000000602095860152925163a9059cbb60e01b9481019485526001600160a01b0391909116602482015260448082019390935291825260009283928390612173606482611cdd565b51925af190612180611f87565b5061218a8261208d565b56fe5af417134f72a9d41143ace85b0a26dce6f550f894f2cbc1eeee8810603d91b6a2646970667358221220618ef729501bc5d5996a8db1540b7d0871799291eca4efb2c1cdb69df83f48a764736f6c63430008110033a2646970667358221220ae305677ab6fe87046bad0d5bcb2399a8f9838d0980da96c1f2bc5471144311764736f6c63430008110033",
  "linkReferences": {},
  "deployedLinkReferences": {}
}